:100000002AC044C043C042C041C040C03FC03EC0FF
:100010003DC03CC03BC007C139C038C037C036C046
:1000200035C000003A00370000003B0038000000F7
:100030003900360001010101010101010202020142
:1000400002040810204080040201000000000004A7
:1000500003020100000011241FBECFE5D2E0DEBF85
:10006000CDBF10E0A0E6B0E0EEE7F6E002C00590FC
:100070000D92A836B107D9F720E0A8E6B0E001C09C
:100080001D92AA38B207E1F718D1F7C2B9CF823072
:10009000A1F018F4813069F00895833019F08430AC
:1000A00029F008958FB58F778FBD08958FB58F7D17
:1000B000FBCF80B78F7780BF089580B78F7DFBCF50
:1000C0001F93CF93DF93282F30E0F901E65BFF4FBA
:1000D0008491F901E15CFF4FD491F901EC5CFF4F91
:1000E000C491CC23A1F0162F8111D1DFEC2FF0E0C9
:1000F000EE0FFF1FE85DFF4FA591B4918FB7F89405
:10010000EC91111108C0D095DE23DC938FBFDF91F5
:10011000CF911F910895DE2BF8CFCF93DF9390E01E
:10012000FC01E15CFF4F24918C5C9F4FFC018491AA
:100130008823C9F090E0880F991FFC01EE5DFF4F06
:10014000A591B491FC01E85DFF4FC591D491611177
:100150000DC09FB7F8948C91209582238C93888151
:10016000282328839FBFDF91CF910895623051F4F7
:100170009FB7F8943C91822F809583238C93E881DC
:100180002E2BEFCF8FB7F894EC912E2B2C938FBFA3
:10019000EACF2FB7F89480916D0090916E00A091F6
:1001A0006F00B09170002FBF809375009093760020
:1001B000A0937700B093780081E08093790061E0AC
:1001C000ACDF60E081E07CCF61E082E079DF10921B
:1001D00061001092600080917A0090917B008230E3
:1001E000910539F486E090E090936300809362007B
:1001F0000895019719F484E090E0F6CF82E090E052
:10020000F3CF1F93CF93DF93EC01162F20D2181753
:1002100031F0612FCE01DF91CF911F9120C2DF918C
:10022000CF911F9108951F920F920FB60F92112434
:100230002F933F938F939F93AF93BF9380916D00C4
:1002400090916E00A0916F00B091700030916C00A1
:1002500020E3230F2D3758F54096A11DB11D2093A3
:100260006C0080936D0090936E00A0936F00B0932C
:1002700070008091680090916900A0916A00B0912F
:100280006B000196A11DB11D8093680090936900D9
:10029000A0936A00B0936B00BF91AF919F918F9133
:1002A0003F912F910F900FBE0F901F90189523EB49
:1002B000230F4196A11DB11DD2CF789480B78260E3
:1002C00080BF80B7816080BF83B7826083BF83B700
:1002D000816083BF89B7816089BF1EBC8EB5826093
:1002E0008EBD8FB581608FBD3298319A309A379A22
:1002F00062E080E012DF61E083E00FDF61E084E034
:100300000CDF61E085E009DF61E082E006DF60E0AC
:1003100081E003DF90E080E09AD190E00097A9F4BB
:1003200081E090E090937B0080937A0080917A0046
:1003300090917B008230910569F460E083E0C0DE3B
:1003400061E084E0BDDE61E00FC0019779F782E0F3
:1003500090E0E8CF61E0019709F0D9C083E0B0DE1A
:1003600061E084E0ADDE60E085E0AADE60E082E08E
:10037000A7DE2ADF0EDFCAE4D0E00FE310E094E34B
:10038000E92E90E0F92E20E0C22E20E0D22E8FB789
:10039000F89480906D0090906E00A0906F00B090E7
:1003A00070008FBF8092860090928700A092880094
:1003B000B0928900FE018491F8017490F701649075
:1003C000662009F4A8C0811162DEE62DF0E0EE0F90
:1003D000FF1FE25DFF4FA591B4918C91782231E02F
:1003E00020E009F430E0832F922F909367008093F0
:1003F0006600209164003091650028173907B1F03C
:10040000909365008093640020918500892B09F00A
:1004100085C021110BC081E0809384008092800010
:1004200090928100A0928200B0928300809184001B
:10043000882309F43FC08091800090918100A091B1
:100440008200B09183008053984FAF4FBF4F881503
:100450009905AA05BB0570F580917A0090917B0003
:1004600010928400823091050CF068C00196909340
:100470007B0080937A00A8DE8CDE80917A009091D8
:100480007B0061E08230910521F0019709F05BC0AB
:1004900060E090E080E0B5DE81E090E020916600D1
:1004A00030916700232B11F090E080E0909365007D
:1004B00080936400809185008823D1F080917C0036
:1004C00090917D00A0917E00B0917F00C296A11D09
:1004D000B11D409186005091870060918800709115
:1004E000890084179507A607B70710F410928500B6
:1004F00080917A0090917B008230910579F560E0DF
:1005000083E0DEDD61E084E0DBDD61E031C083E0DB
:10051000D7DD60E016CF90E080E067CF10928400D6
:100520002111C8CF81E08093850080927C00909259
:100530007D00A0927E00B0927F0078CF10927B0069
:1005400010927A0098CF90E080E081D08F3F09F43C
:10055000A3CF6FEF90E080E082D09ECF61E0019763
:1005600009F053C083E0ACDD61E084E0A9DD60E028
:1005700085E0A6DD809179008823F1F080917500F7
:1005800090917600A0917700B0917800845D9E4FA5
:10059000AF4FBF4F40918600509187006091880017
:1005A0007091890084179507A607B70728F4109261
:1005B000790060E081E0B1DDA0906200B09063005E
:1005C000F2E0AF16B104DCF0409186005091870054
:1005D0006091880070918900809160009091610025
:1005E000A816B906B1F0B0926100A09260004093E5
:1005F0007100509372006093730070937400C11483
:10060000D10409F4C4CEFCDCC2CE83E059DD60E045
:100610007ACF8091710090917200A0917300B09197
:10062000740086509F4FAF4FBF4F84179507A607A2
:10063000B70728F760E0A0FC61E082E041DD81E0DF
:10064000A81AB108B0926300A0926200D8CFE199D5
:10065000FECF9FBB8EBBE09A99278DB30895262FBE
:10066000E199FECF1CBA9FBB8EBB2DBB0FB6F89491
:0E067000E29AE19A0FBE01960895F894FFCF2A
:08067E00010001000100010070
:00000001FF
